S01C00006C65645F6D61747269785F626C7565746F6F74682E73726563AA
S11300000C9434000C9451000C9451000C94510045
S11300100C9451000C9451000C9451000C94510018
S11300200C9451000C9451000C9451000C94510008
S11300300C9451000C9451000C9451000C945100F8
S11300400C9451000C9451000C9453000C945100E6
S11300500C9451000C9451000C9451000C945100D8
S11300600C9451000C94510011241FBECFEFD8E022
S1130070DEBFCDBF11E0A0E0B1E0EEE4F3E002C0EA
S113008005900D92A830B107D9F721E0A8E0B1E0BE
S113009001C01D92AA30B207E1F70E9466000C94D9
S11300A0A5010C9400001F920F920FB60F92112419
S11300B08F938091C6008093090181E080930801A9
S11300C08F910F900FBE0F901F901895CF93DF93D1
S11300D0CDB7DEB72A970FB6F894DEBF0FBECDBFFB
S11300E08FEF84B990EC9AB99FE397B915B888B9A2
S11300F00E947201789485E091E00E948D018AE06B
S11301000E949D0185E0E0E0F1E0DE01119601909E
S11301100D928A95E1F7FE01369685E0DF011D9286
S11301208A95E9F741E09E01255F3F4F80910801E0
S1130130813009F0D2C080910901803321F48E818D
S11301408F5F8E83B9C08A3721F48E8181508E836C
S1130150B3C0893721F485B1842785B9ADC0813313
S113016021F48F818F5F8F83A7C0823321F4888528
S11301708F5F8887A1C0833321F489858F5F898746
S11301809BC0843321F48A858F5F8A8795C0853329
S113019021F48E818E5F8E838FC0863321F48F810C
S11301A08E5F8F8389C0873321F488858E5F88872B
S11301B083C0883321F489858E5F89877DC0893324
S11301C021F48A858E5F8A8777C0813421F48E81F9
S11301D08C5F8E8371C0823421F48F818C5F8F8316
S11301E06BC0833421F488858C5F888765C0843430
S11301F021F489858C5F89875FC0853421F48A85E1
S11302008C5F8A8759C0863421F48E81885F8E83FF
S113021053C0873421F48F81885F8F834DC0883425
S113022021F48885885F888747C0893421F48985CB
S1130230885F898741C08A3421F48A85885F8A87E8
S11302403BC08B3421F48E81805F8E8335C08C3427
S113025021F48F81805F8F832FC08D3421F48885B2
S1130260805F888729C08E3421F48985805F8987DF
S113027023C08F3421F48A85805F8A871DC080352E
S113028021F48E81805E8E8317C0813521F48F81A5
S1130290805E8F8311C0823521F48885805E8887D3
S11302A00BC0833521F48985805E898705C0843538
S11302B019F48A85805E8A87109208010EC08191A4
S11302C085B98D9188B98FE99FE00197F1F700C056
S11302D00000E217F30799F729CFFE013696DE01F5
S11302E01196EDCF1092C50087E68093C400E2EC2E
S11302F0F0E0808186608083E1ECF0E080818861B9
S113030080838081806880830895E0ECF0E09081B0
S113031095FFFDCF8093C6000895CF93DF93EC0142
S11303208881882339F0219690E00E948501899183
S11303308111FACFDF91CF910895E0ECF0E0908144
S111034095FFFDCF8093C6000895F894FFCF7B
S10B034EFEFDFBF7EF41000086
S9030000FC
